{
  "contractName": "Basic",
  "abi": [
    {
      "anonymous": false,
      "inputs": [
        {
          "indexed": false,
          "name": "userAddress",
          "type": "address"
        },
        {
          "indexed": false,
          "name": "ipfsHash",
          "type": "string"
        }
      ],
      "name": "CreateUser",
      "type": "event"
    },
    {
      "constant": false,
      "inputs": [
        {
          "name": "_ipfsHash",
          "type": "string"
        }
      ],
      "name": "createUser",
      "outputs": [],
      "payable": false,
      "stateMutability": "nonpayable",
      "type": "function"
    },
    {
      "constant": false,
      "inputs": [
        {
          "name": "_ipfsHash",
          "type": "string"
        }
      ],
      "name": "modifyUserInfo",
      "outputs": [],
      "payable": false,
      "stateMutability": "nonpayable",
      "type": "function"
    },
    {
      "constant": true,
      "inputs": [
        {
          "name": "_userAddress",
          "type": "address"
        }
      ],
      "name": "getUserInfo",
      "outputs": [
        {
          "name": "",
          "type": "address"
        },
        {
          "name": "",
          "type": "string"
        },
        {
          "name": "",
          "type": "uint256"
        },
        {
          "name": "",
          "type": "uint256"
        }
      ],
      "payable": false,
      "stateMutability": "view",
      "type": "function"
    }
  ],
  "bytecode": "0x608060405234801561001057600080fd5b50610875806100206000396000f3fe608060405260043610610057576000357c0100000000000000000000000000000000000000000000000000000000900463ffffffff168063507ffba51461005c5780635a99143d146101245780636386c1c7146101ec575b600080fd5b34801561006857600080fd5b506101226004803603602081101561007f57600080fd5b810190808035906020019064010000000081111561009c57600080fd5b8201836020820111156100ae57600080fd5b803590602001918460018302840111640100000000831117156100d057600080fd5b91908080601f016020809104026020016040519081016040528093929190818152602001838380828437600081840152601f19601f8201169050808301925050505050505091929192905050506102f7565b005b34801561013057600080fd5b506101ea6004803603602081101561014757600080fd5b810190808035906020019064010000000081111561016457600080fd5b82018360208201111561017657600080fd5b8035906020019184600183028401116401000000008311171561019857600080fd5b91908080601f016020809104026020016040519081016040528093929190818152602001838380828437600081840152601f19601f82011690508083019250505050505050919291929050505061052c565b005b3480156101f857600080fd5b5061023b6004803603602081101561020f57600080fd5b81019080803573ffffffffffffffffffffffffffffffffffffffff1690602001909291905050506105cb565b604051808573ffffffffffffffffffffffffffffffffffffffff1673ffffffffffffffffffffffffffffffffffffffff16815260200180602001848152602001838152602001828103825285818151815260200191508051906020019080838360005b838110156102b957808201518184015260208101905061029e565b50505050905090810190601f1680156102e65780820380516001836020036101000a031916815260200191505b509550505050505060405180910390f35b336000803373ffffffffffffffffffffffffffffffffffffffff1673ffffffffffffffffffffffffffffffffffffffff16815260200190815260200160002060000160006101000a81548173ffffffffffffffffffffffffffffffffffffffff021916908373ffffffffffffffffffffffffffffffffffffffff160217905550806000803373ffffffffffffffffffffffffffffffffffffffff1673ffffffffffffffffffffffffffffffffffffffff16815260200190815260200160002060010190805190602001906103cc9291906107a4565b50426000803373ffffffffffffffffffffffffffffffffffffffff1673ffffffffffffffffffffffffffffffffffffffff16815260200190815260200160002060020181905550426000803373ffffffffffffffffffffffffffffffffffffffff1673ffffffffffffffffffffffffffffffffffffffff168152602001908152602001600020600301819055507f7af318d5bd6365b7d40b505f244d54e2c4f1ce2b230b107b8cbdfdd2f86cafbc3382604051808373ffffffffffffffffffffffffffffffffffffffff1673ffffffffffffffffffffffffffffffffffffffff16815260200180602001828103825283818151815260200191508051906020019080838360005b838110156104ee5780820151818401526020810190506104d3565b50505050905090810190601f16801561051b5780820380516001836020036101000a031916815260200191505b50935050505060405180910390a150565b806000803373ffffffffffffffffffffffffffffffffffffffff1673ffffffffffffffffffffffffffffffffffffffff16815260200190815260200160002060010190805190602001906105819291906107a4565b50426000803373ffffffffffffffffffffffffffffffffffffffff1673ffffffffffffffffffffffffffffffffffffffff1681526020019081526020016000206003018190555050565b600060606000806000808673ffffffffffffffffffffffffffffffffffffffff1673ffffffffffffffffffffffffffffffffffffffff16815260200190815260200160002060000160009054906101000a900473ffffffffffffffffffffffffffffffffffffffff166000808773ffffffffffffffffffffffffffffffffffffffff1673ffffffffffffffffffffffffffffffffffffffff1681526020019081526020016000206001016000808873ffffffffffffffffffffffffffffffffffffffff1673ffffffffffffffffffffffffffffffffffffffff168152602001908152602001600020600201546000808973ffffffffffffffffffffffffffffffffffffffff1673ffffffffffffffffffffffffffffffffffffffff16815260200190815260200160002060030154828054600181600116156101000203166002900480601f01602080910402602001604051908101604052809291908181526020018280546001816001161561010002031660029004801561078e5780601f106107635761010080835404028352916020019161078e565b820191906000526020600020905b81548152906001019060200180831161077157829003601f168201915b5050505050925093509350935093509193509193565b828054600181600116156101000203166002900490600052602060002090601f016020900481019282601f106107e557805160ff1916838001178555610813565b82800160010185558215610813579182015b828111156108125782518255916020019190600101906107f7565b5b5090506108209190610824565b5090565b61084691905b8082111561084257600081600090555060010161082a565b5090565b9056fea165627a7a7230582070828252b74b0e1bd410e819129d3e80030c4841df6f02a89e94dc5d9d6d5a1b0029",
  "source": "pragma solidity >=0.4.25 <0.6.0;\r\n\r\n//User Basic Information\r\ncontract Basic {\r\n\r\n    struct BasicInfo {\r\n        address userAddress ;\r\n        string ipfsHash ;\r\n        uint createdTimestamp ;\r\n        uint modifiedTimeStamp ;\r\n    }\r\n\r\n    mapping ( address => BasicInfo ) private _basicInfoList ;\r\n    \r\n    event CreateUser(address userAddress,string ipfsHash) ;\r\n\r\n    //create user's own info\r\n    function createUser(string memory _ipfsHash) public {\r\n        _basicInfoList[msg.sender].userAddress = msg.sender ;\r\n        _basicInfoList[msg.sender].ipfsHash = _ipfsHash ;\r\n        _basicInfoList[msg.sender].createdTimestamp = block.timestamp ;\r\n        _basicInfoList[msg.sender].modifiedTimeStamp = block.timestamp ;\r\n    \r\n        emit CreateUser(msg.sender,_ipfsHash);\r\n    }\r\n\r\n    //create user's own info\r\n    function modifyUserInfo(string memory _ipfsHash) public {\r\n        _basicInfoList[msg.sender].ipfsHash = _ipfsHash ;\r\n        _basicInfoList[msg.sender].modifiedTimeStamp = block.timestamp ;\r\n    }\r\n\r\n    function getUserInfo(address _userAddress) public view returns(address,string memory,uint,uint) {\r\n        return(_basicInfoList[_userAddress].userAddress,\r\n            _basicInfoList[_userAddress].ipfsHash,\r\n            _basicInfoList[_userAddress].createdTimestamp,\r\n            _basicInfoList[_userAddress].modifiedTimeStamp) ;\r\n    }\r\n\r\n}\r\n",
  "sourcePath": "/mnt/c/human_resources/hr_foreign/contracts/Basic.sol",
  "compiler": {
    "name": "solc",
    "version": "0.5.0+commit.1d4f565a.Emscripten.clang"
  },
  "schemaVersion": "3.0.1",
  "updatedAt": "2019-03-01T06:32:03.659Z",
  "devdoc": {
    "methods": {}
  },
  "userdoc": {
    "methods": {}
  }
}