{
  "contractName": "SkillRecords",
  "abi": [
    {
      "constant": false,
      "inputs": [
        {
          "name": "_userAddress",
          "type": "address"
        },
        {
          "name": "_ipfsHash",
          "type": "string"
        },
        {
          "name": "_recordType",
          "type": "uint8"
        }
      ],
      "name": "generateSkillRecordByBelongs",
      "outputs": [],
      "payable": false,
      "stateMutability": "nonpayable",
      "type": "function",
      "signature": "0x02da14fb"
    },
    {
      "constant": false,
      "inputs": [
        {
          "name": "_belongsAddress",
          "type": "address"
        },
        {
          "name": "_ipfsHash",
          "type": "string"
        },
        {
          "name": "_recordType",
          "type": "uint8"
        }
      ],
      "name": "generateSkillRecordByUser",
      "outputs": [],
      "payable": false,
      "stateMutability": "nonpayable",
      "type": "function",
      "signature": "0x4b1fe48d"
    },
    {
      "constant": false,
      "inputs": [
        {
          "name": "_id",
          "type": "uint256"
        },
        {
          "name": "_isApproved",
          "type": "bool"
        },
        {
          "name": "_commentIpfsHash",
          "type": "string"
        }
      ],
      "name": "approve",
      "outputs": [],
      "payable": false,
      "stateMutability": "nonpayable",
      "type": "function",
      "signature": "0xa4ef4f06"
    },
    {
      "constant": true,
      "inputs": [
        {
          "name": "_id",
          "type": "uint256"
        }
      ],
      "name": "getSkillRecord",
      "outputs": [
        {
          "name": "",
          "type": "address"
        },
        {
          "name": "",
          "type": "string"
        },
        {
          "name": "",
          "type": "uint8"
        },
        {
          "name": "",
          "type": "uint8"
        },
        {
          "name": "",
          "type": "uint256"
        },
        {
          "name": "",
          "type": "uint256"
        }
      ],
      "payable": false,
      "stateMutability": "view",
      "type": "function",
      "signature": "0x90760da4"
    },
    {
      "constant": true,
      "inputs": [
        {
          "name": "_id",
          "type": "uint256"
        }
      ],
      "name": "getWorkFlow",
      "outputs": [
        {
          "name": "",
          "type": "address"
        },
        {
          "name": "",
          "type": "address"
        },
        {
          "name": "",
          "type": "string"
        },
        {
          "name": "",
          "type": "bool"
        },
        {
          "name": "",
          "type": "uint256"
        },
        {
          "name": "",
          "type": "uint256"
        }
      ],
      "payable": false,
      "stateMutability": "view",
      "type": "function",
      "signature": "0xd61c48b8"
    },
    {
      "constant": true,
      "inputs": [],
      "name": "getMySkillRecords",
      "outputs": [
        {
          "name": "",
          "type": "uint256[]"
        }
      ],
      "payable": false,
      "stateMutability": "view",
      "type": "function",
      "signature": "0x1beb52f7"
    },
    {
      "constant": true,
      "inputs": [],
      "name": "getPendingWorkFlowsByApprover",
      "outputs": [
        {
          "name": "",
          "type": "uint256[]"
        }
      ],
      "payable": false,
      "stateMutability": "view",
      "type": "function",
      "signature": "0x9d75c959"
    },
    {
      "constant": true,
      "inputs": [],
      "name": "getGeneratedWorkFlows",
      "outputs": [
        {
          "name": "",
          "type": "uint256[]"
        }
      ],
      "payable": false,
      "stateMutability": "view",
      "type": "function",
      "signature": "0x1b1b2650"
    }
  ],
  "bytecode": "0x60806040526000805534801561001457600080fd5b5061157d806100246000396000f3fe60806040526004361061008e576000357c0100000000000000000000000000000000000000000000000000000000900463ffffffff16806302da14fb146100935780631b1b2650146101885780631beb52f7146101f45780634b1fe48d1461026057806390760da4146103555780639d75c95914610464578063a4ef4f06146104d0578063d61c48b8146105ae575b600080fd5b34801561009f57600080fd5b50610186600480360360608110156100b657600080fd5b81019080803573ffffffffffffffffffffffffffffffffffffffff169060200190929190803590602001906401000000008111156100f357600080fd5b82018360208201111561010557600080fd5b8035906020019184600183028401116401000000008311171561012757600080fd5b91908080601f016020809104026020016040519081016040528093929190818152602001838380828437600081840152601f19601f820116905080830192505050505050509192919290803560ff1690602001909291905050506106e1565b005b34801561019457600080fd5b5061019d610a48565b6040518080602001828103825283818151815260200191508051906020019060200280838360005b838110156101e05780820151818401526020810190506101c5565b505050509050019250505060405180910390f35b34801561020057600080fd5b50610209610add565b6040518080602001828103825283818151815260200191508051906020019060200280838360005b8381101561024c578082015181840152602081019050610231565b505050509050019250505060405180910390f35b34801561026c57600080fd5b506103536004803603606081101561028357600080fd5b81019080803573ffffffffffffffffffffffffffffffffffffffff169060200190929190803590602001906401000000008111156102c057600080fd5b8201836020820111156102d257600080fd5b803590602001918460018302840111640100000000831117156102f457600080fd5b91908080601f016020809104026020016040519081016040528093929190818152602001838380828437600081840152601f19601f820116905080830192505050505050509192919290803560ff169060200190929190505050610b72565b005b34801561036157600080fd5b5061038e6004803603602081101561037857600080fd5b8101908080359060200190929190505050610eda565b604051808773ffffffffffffffffffffffffffffffffffffffff1673ffffffffffffffffffffffffffffffffffffffff168152602001806020018660ff1660ff1681526020018560ff1660ff168152602001848152602001838152602001828103825287818151815260200191508051906020019080838360005b83811015610424578082015181840152602081019050610409565b50505050905090810190601f1680156104515780820380516001836020036101000a031916815260200191505b5097505050505050505060405180910390f35b34801561047057600080fd5b50610479611058565b6040518080602001828103825283818151815260200191508051906020019060200280838360005b838110156104bc5780820151818401526020810190506104a1565b505050509050019250505060405180910390f35b3480156104dc57600080fd5b506105ac600480360360608110156104f357600080fd5b81019080803590602001909291908035151590602001909291908035906020019064010000000081111561052657600080fd5b82018360208201111561053857600080fd5b8035906020019184600183028401116401000000008311171561055a57600080fd5b91908080601f016020809104026020016040519081016040528093929190818152602001838380828437600081840152601f19601f8201169050808301925050505050505091929192905050506110ed565b005b3480156105ba57600080fd5b506105e7600480360360208110156105d157600080fd5b810190808035906020019092919050505061131b565b604051808773ffffffffffffffffffffffffffffffffffffffff1673ffffffffffffffffffffffffffffffffffffffff1681526020018673ffffffffffffffffffffffffffffffffffffffff1673ffffffffffffffffffffffffffffffffffffffff1681526020018060200185151515158152602001848152602001838152602001828103825286818151815260200191508051906020019080838360005b838110156106a1578082015181840152602081019050610686565b50505050905090810190601f1680156106ce5780820380516001836020036101000a031916815260200191505b5097505050505050505060405180910390f35b600080549050806001600083815260200190815260200160002060000181905550836001600083815260200190815260200160002060010160006101000a81548173ffffffffffffffffffffffffffffffffffffffff021916908373ffffffffffffffffffffffffffffffffffffffff160217905550826001600083815260200190815260200160002060020190805190602001906107819291906114ac565b50816001600083815260200190815260200160002060030160006101000a81548160ff021916908360ff160217905550600180600083815260200190815260200160002060030160016101000a81548160ff021916908360ff160217905550426001600083815260200190815260200160002060040181905550426001600083815260200190815260200160002060050181905550600360008573ffffffffffffffffffffffffffffffffffffffff1673ffffffffffffffffffffffffffffffffffffffff168152602001908152602001600020819080600181540180825580915050906001820390600052602060002001600090919290919091505550806002600083815260200190815260200160002060000181905550336002600083815260200190815260200160002060010160006101000a81548173ffffffffffffffffffffffffffffffffffffffff021916908373ffffffffffffffffffffffffffffffffffffffff160217905550836002600083815260200190815260200160002060020160006101000a81548173ffffffffffffffffffffffffffffffffffffffff021916908373ffffffffffffffffffffffffffffffffffffffff160217905550426002600083815260200190815260200160002060050181905550600460003373ffffffffffffffffffffffffffffffffffffffff1673ffffffffffffffffffffffffffffffffffffffff168152602001908152602001600020819080600181540180825580915050906001820390600052602060002001600090919290919091505550600560008573ffffffffffffffffffffffffffffffffffffffff1673ffffffffffffffffffffffffffffffffffffffff168152602001908152602001600020819080600181540180825580915050906001820390600052602060002001600090919290919091505550600080815480929190600101919050555050505050565b6060600460003373ffffffffffffffffffffffffffffffffffffffff1673ffffffffffffffffffffffffffffffffffffffff168152602001908152602001600020805480602002602001604051908101604052809291908181526020018280548015610ad357602002820191906000526020600020905b815481526020019060010190808311610abf575b5050505050905090565b6060600360003373ffffffffffffffffffffffffffffffffffffffff1673ffffffffffffffffffffffffffffffffffffffff168152602001908152602001600020805480602002602001604051908101604052809291908181526020018280548015610b6857602002820191906000526020600020905b815481526020019060010190808311610b54575b5050505050905090565b600080549050806001600083815260200190815260200160002060000181905550336001600083815260200190815260200160002060010160006101000a81548173ffffffffffffffffffffffffffffffffffffffff021916908373ffffffffffffffffffffffffffffffffffffffff16021790555082600160008381526020019081526020016000206002019080519060200190610c129291906114ac565b50816001600083815260200190815260200160002060030160006101000a81548160ff021916908360ff16021790555060026001600083815260200190815260200160002060030160016101000a81548160ff021916908360ff160217905550426001600083815260200190815260200160002060040181905550426001600083815260200190815260200160002060050181905550600360003373ffffffffffffffffffffffffffffffffffffffff1673ffffffffffffffffffffffffffffffffffffffff168152602001908152602001600020819080600181540180825580915050906001820390600052602060002001600090919290919091505550806002600083815260200190815260200160002060000181905550336002600083815260200190815260200160002060010160006101000a81548173ffffffffffffffffffffffffffffffffffffffff021916908373ffffffffffffffffffffffffffffffffffffffff160217905550836002600083815260200190815260200160002060020160006101000a81548173ffffffffffffffffffffffffffffffffffffffff021916908373ffffffffffffffffffffffffffffffffffffffff160217905550426002600083815260200190815260200160002060050181905550600460003373ffffffffffffffffffffffffffffffffffffffff1673ffffffffffffffffffffffffffffffffffffffff168152602001908152602001600020819080600181540180825580915050906001820390600052602060002001600090919290919091505550600560008573ffffffffffffffffffffffffffffffffffffffff1673ffffffffffffffffffffffffffffffffffffffff168152602001908152602001600020819080600181540180825580915050906001820390600052602060002001600090919290919091505550600080815480929190600101919050555050505050565b600060606000806000806001600088815260200190815260200160002060010160009054906101000a900473ffffffffffffffffffffffffffffffffffffffff1660016000898152602001908152602001600020600201600160008a815260200190815260200160002060030160009054906101000a900460ff16600160008b815260200190815260200160002060030160019054906101000a900460ff16600160008c815260200190815260200160002060040154600160008d815260200190815260200160002060050154848054600181600116156101000203166002900480601f01602080910402602001604051908101604052809291908181526020018280546001816001161561010002031660029004801561103c5780601f106110115761010080835404028352916020019161103c565b820191906000526020600020905b81548152906001019060200180831161101f57829003601f168201915b5050505050945095509550955095509550955091939550919395565b6060600560003373ffffffffffffffffffffffffffffffffffffffff1673ffffffffffffffffffffffffffffffffffffffff1681526020019081526020016000208054806020026020016040519081016040528092919081815260200182805480156110e357602002820191906000526020600020905b8154815260200190600101908083116110cf575b5050505050905090565b3373ffffffffffffffffffffffffffffffffffffffff166002600085815260200190815260200160002060020160009054906101000a900473ffffffffffffffffffffffffffffffffffffffff1673ffffffffffffffffffffffffffffffffffffffff161415156111c6576040517f08c379a000000000000000000000000000000000000000000000000000000000815260040180806020018281038252601a8152602001807f617070726f766520636f6e647563746f722069732077726f6e6700000000000081525060200191505060405180910390fd5b81156112015760006001600085815260200190815260200160002060030160016101000a81548160ff021916908360ff160217905550611232565b60096001600085815260200190815260200160002060030160016101000a81548160ff021916908360ff1602179055505b426001600085815260200190815260200160002060050181905550816002600085815260200190815260200160002060040160006101000a81548160ff021916908315150217905550806002600085815260200190815260200160002060030190805190602001906112a59291906114ac565b50336002600085815260200190815260200160002060020160006101000a81548173ffffffffffffffffffffffffffffffffffffffff021916908373ffffffffffffffffffffffffffffffffffffffff160217905550426002600085815260200190815260200160002060060181905550505050565b600080606060008060006002600088815260200190815260200160002060010160009054906101000a900473ffffffffffffffffffffffffffffffffffffffff166002600089815260200190815260200160002060020160009054906101000a900473ffffffffffffffffffffffffffffffffffffffff16600260008a8152602001908152602001600020600301600260008b815260200190815260200160002060040160009054906101000a900460ff16600260008c815260200190815260200160002060050154600260008d815260200190815260200160002060060154838054600181600116156101000203166002900480601f0160208091040260200160405190810160405280929190818152602001828054600181600116156101000203166002900480156114905780601f1061146557610100808354040283529160200191611490565b820191906000526020600020905b81548152906001019060200180831161147357829003601f168201915b5050505050935095509550955095509550955091939550919395565b828054600181600116156101000203166002900490600052602060002090601f016020900481019282601f106114ed57805160ff191683800117855561151b565b8280016001018555821561151b579182015b8281111561151a5782518255916020019190600101906114ff565b5b509050611528919061152c565b5090565b61154e91905b8082111561154a576000816000905550600101611532565b5090565b9056fea165627a7a72305820db336a8a7dcf4c305c872ff4bf65df15573bdddb8c24cdb00c65ad4db6dd867d0029",
  "source": "pragma solidity >=0.4.25 <0.6.0;\r\n\r\n//User Basic Information\r\ncontract SkillRecords {\r\n\r\n    //id counter \r\n    uint256 private _counter = 0 ;\r\n\r\n    struct SkillRecord {\r\n        uint256 id ;\r\n        address userAddress ;\r\n        string ipfsHash ;\r\n        uint8 recordType ;\r\n        uint8 status ;\r\n        uint256 createdTimestamp ;\r\n        uint256 modifiedTimestamp ;\r\n    }\r\n    struct WorkFlow {\r\n        uint256 id ;\r\n        address generateAddress ;\r\n        address approveAddress ;\r\n        string commentIpfsHash ;\r\n        bool isApproved ;\r\n        uint256 generatedTimestamp ;\r\n        uint256 approvedTimestamp ;\r\n    }\r\n\r\n    //constant\r\n    uint8 constant TYPE_PROJECT = 0 ;\r\n    uint8 constant TYPE_EDU = 1 ;\r\n    uint8 constant TYPE_SKILL = 2 ;\r\n    uint8 constant TYPE_QUALIFI = 3 ;\r\n\r\n    uint8 constant STATUS_APPROVED = 0;\r\n    uint8 constant STATUS_WATING_USER_APPROVE = 1;\r\n    uint8 constant STATUS_WATING_BELONGS_APPROVE = 2;\r\n    uint8 constant STATUS_INVALID = 9;\r\n\r\n    //skill ID => skill record\r\n    mapping ( uint => SkillRecord ) private _skillRecords ;\r\n\r\n    //skill ID => workflow\r\n    mapping ( uint => WorkFlow ) private _workFlows ;\r\n\r\n    //userAddress => skill ID\r\n    mapping ( address => uint256[] ) private _skillsOfUser ;\r\n\r\n    //generateAddress => skill ID\r\n    mapping ( address => uint256[] ) private _workFlowsOfGenerator ;\r\n\r\n    //approveAddress => skill ID\r\n    mapping ( address => uint256[] ) private _workFlowsOfApprover ;\r\n\r\n    //generate skill record( only belongs institution) todo belongs check\r\n    function generateSkillRecordByBelongs(address _userAddress,string memory _ipfsHash,uint8 _recordType) public {\r\n        uint id = _counter ;\r\n        \r\n        _skillRecords[id].id = id ;\r\n        _skillRecords[id].userAddress = _userAddress ;\r\n        _skillRecords[id].ipfsHash = _ipfsHash ;\r\n        _skillRecords[id].recordType = _recordType ;\r\n        _skillRecords[id].status = STATUS_WATING_USER_APPROVE;\r\n        _skillRecords[id].createdTimestamp = block.timestamp ;\r\n        _skillRecords[id].modifiedTimestamp = block.timestamp ;\r\n\r\n        _skillsOfUser[_userAddress].push(id) ;\r\n\r\n        _workFlows[id].id = id ;\r\n        _workFlows[id].generateAddress = msg.sender ;\r\n        _workFlows[id].approveAddress = _userAddress ;\r\n        _workFlows[id].generatedTimestamp = block.timestamp ;\r\n\r\n        _workFlowsOfGenerator[msg.sender].push(id) ;\r\n        _workFlowsOfApprover[_userAddress].push(id) ;\r\n\r\n        _counter++ ;        \r\n    }\r\n\r\n    //generate skill record( only user)\r\n    function generateSkillRecordByUser(address _belongsAddress,string memory _ipfsHash,uint8 _recordType) public {\r\n        uint id = _counter ;\r\n        \r\n        _skillRecords[id].id = id ;\r\n        _skillRecords[id].userAddress = msg.sender ;\r\n        _skillRecords[id].ipfsHash = _ipfsHash ;\r\n        _skillRecords[id].recordType = _recordType ;\r\n        _skillRecords[id].status = STATUS_WATING_BELONGS_APPROVE ;\r\n        _skillRecords[id].createdTimestamp = block.timestamp ;\r\n        _skillRecords[id].modifiedTimestamp = block.timestamp ;\r\n\r\n        _skillsOfUser[msg.sender].push(id) ;\r\n\r\n        _workFlows[id].id = id ;\r\n        _workFlows[id].generateAddress = msg.sender ;\r\n        _workFlows[id].approveAddress = _belongsAddress ;\r\n        _workFlows[id].generatedTimestamp = block.timestamp ;\r\n\r\n        _workFlowsOfGenerator[msg.sender].push(id) ;\r\n        _workFlowsOfApprover[_belongsAddress].push(id) ;\r\n\r\n        _counter++ ;\r\n    }\r\n\r\n    //approve skill record\r\n    function approve(uint _id,bool _isApproved,string memory _commentIpfsHash) public {\r\n        require(_workFlows[_id].approveAddress == msg.sender,\"approve conductor is wrong\") ;\r\n        \r\n        if(_isApproved){\r\n            _skillRecords[_id].status = STATUS_APPROVED ;\r\n        }else{\r\n            _skillRecords[_id].status = STATUS_INVALID ;\r\n        }\r\n        _skillRecords[_id].modifiedTimestamp = block.timestamp ;\r\n        _workFlows[_id].isApproved = _isApproved ;\r\n        _workFlows[_id].commentIpfsHash = _commentIpfsHash ;\r\n        _workFlows[_id].approveAddress = msg.sender ;\r\n        _workFlows[_id].approvedTimestamp = block.timestamp ;\r\n\r\n    }\r\n\r\n    //get skill record\r\n    function getSkillRecord(uint _id) public view returns(\r\n        address,string memory,uint8,uint8,uint256,uint256) {\r\n        return (\r\n            _skillRecords[_id].userAddress,\r\n            _skillRecords[_id].ipfsHash,\r\n            _skillRecords[_id].recordType,\r\n            _skillRecords[_id].status,\r\n            _skillRecords[_id].createdTimestamp,\r\n            _skillRecords[_id].modifiedTimestamp\r\n        ) ;\r\n    }\r\n\r\n    //get work flow\r\n    function getWorkFlow(uint _id) public view returns(\r\n        address,address,string memory,bool,uint256,uint256) {\r\n        return (\r\n            _workFlows[_id].generateAddress,\r\n            _workFlows[_id].approveAddress,\r\n            _workFlows[_id].commentIpfsHash,\r\n            _workFlows[_id].isApproved,\r\n            _workFlows[_id].generatedTimestamp,\r\n            _workFlows[_id].approvedTimestamp\r\n        ) ;\r\n    }\r\n\r\n    //get my own skill records\r\n    function getMySkillRecords() public view returns(uint256[] memory) {\r\n        return _skillsOfUser[msg.sender] ;\r\n    }\r\n\r\n    //get work flows which wait for approving\r\n    function getPendingWorkFlowsByApprover() public view returns(uint256[] memory) {\r\n        return _workFlowsOfApprover[msg.sender] ;\r\n    }\r\n\r\n    //get work flows generated msg.sender\r\n    function getGeneratedWorkFlows() public view returns(uint256[] memory) {\r\n        return _workFlowsOfGenerator[msg.sender] ;\r\n    }\r\n\r\n}\r\n",
  "sourcePath": "/mnt/c/human_resources/hr_foreign/contracts/SkillRecords.sol",
  "compiler": {
    "name": "solc",
    "version": "0.5.0+commit.1d4f565a.Emscripten.clang"
  },
  "schemaVersion": "3.0.1",
  "updatedAt": "2019-02-17T10:02:02.692Z",
  "devdoc": {
    "methods": {}
  },
  "userdoc": {
    "methods": {}
  }
}